{
  "contractName": "Voting",
  "abi": [
    {
      "inputs": [
        {
          "internalType": "bytes32[]",
          "name": "names",
          "type": "bytes32[]"
        }
      ],
      "stateMutability": "nonpayable",
      "type": "constructor"
    },
    {
      "inputs": [],
      "name": "owner",
      "outputs": [
        {
          "internalType": "address",
          "name": "",
          "type": "address"
        }
      ],
      "stateMutability": "view",
      "type": "function",
      "constant": true
    },
    {
      "inputs": [
        {
          "internalType": "uint256",
          "name": "cno",
          "type": "uint256"
        }
      ],
      "name": "vote",
      "outputs": [
        {
          "internalType": "bool",
          "name": "",
          "type": "bool"
        }
      ],
      "stateMutability": "nonpayable",
      "type": "function"
    },
    {
      "inputs": [],
      "name": "getWinner",
      "outputs": [
        {
          "internalType": "bytes32",
          "name": "",
          "type": "bytes32"
        }
      ],
      "stateMutability": "view",
      "type": "function",
      "constant": true
    }
  ],
  "bytecode": "0x60806040523480156200001157600080fd5b5060405162000a3138038062000a318339818101604052810190620000379190620002f5565b336000806101000a81548173ffffffffffffffffffffffffffffffffffffffff021916908373ffffffffffffffffffffffffffffffffffffffff16021790555060006001819055507f4e6f2077696e6e6572000000000000000000000000000000000000000000000060010260028190555060005b815181101562000129576040518060400160405280838381518110620000d757620000d662000346565b5b60200260200101518152602001600081525060046000838152602001908152602001600020600082015181600001556020820151816001015590505080806200012090620003ae565b915050620000ac565b5050620003fb565b6000604051905090565b600080fd5b600080fd5b600080fd5b6000601f19601f8301169050919050565b7f4e487b7100000000000000000000000000000000000000000000000000000000600052604160045260246000fd5b62000195826200014a565b810181811067ffffffffffffffff82111715620001b757620001b66200015b565b5b80604052505050565b6000620001cc62000131565b9050620001da82826200018a565b919050565b600067ffffffffffffffff821115620001fd57620001fc6200015b565b5b602082029050602081019050919050565b600080fd5b6000819050919050565b620002288162000213565b81146200023457600080fd5b50565b60008151905062000248816200021d565b92915050565b6000620002656200025f84620001df565b620001c0565b905080838252602082019050602084028301858111156200028b576200028a6200020e565b5b835b81811015620002b85780620002a3888262000237565b8452602084019350506020810190506200028d565b5050509392505050565b600082601f830112620002da57620002d962000145565b5b8151620002ec8482602086016200024e565b91505092915050565b6000602082840312156200030e576200030d6200013b565b5b600082015167ffffffffffffffff8111156200032f576200032e62000140565b5b6200033d84828501620002c2565b91505092915050565b7f4e487b7100000000000000000000000000000000000000000000000000000000600052603260045260246000fd5b7f4e487b7100000000000000000000000000000000000000000000000000000000600052601160045260246000fd5b6000819050919050565b6000620003bb82620003a4565b91507fffffffffffffffffffffffffffffffffffffffffffffffffffffffffffffffff8203620003f057620003ef62000375565b5b600182019050919050565b610626806200040b6000396000f3fe608060405234801561001057600080fd5b506004361061005e576000357c0100000000000000000000000000000000000000000000000000000000900480630121b93f146100635780638da5cb5b146100935780638e7ea5b2146100b1575b600080fd5b61007d6004803603810190610078919061038b565b6100cf565b60405161008a91906103d3565b60405180910390f35b61009b610293565b6040516100a8919061042f565b60405180910390f35b6100b96102b7565b6040516100c69190610463565b60405180910390f35b6000600360003373ffffffffffffffffffffffffffffffffffffffff1673ffffffffffffffffffffffffffffffffffffffff16815260200190815260200160002060009054906101000a900460ff161561015e576040517f08c379a000000000000000000000000000000000000000000000000000000000815260040161015590610501565b60405180910390fd5b6001600360003373ffffffffffffffffffffffffffffffffffffffff1673ffffffffffffffffffffffffffffffffffffffff16815260200190815260200160002060006101000a81548160ff02191690831515021790555060016004600084815260200190815260200160002060010160008282546101dd9190610550565b925050819055506004600083815260200190815260200160002060010154600154101561023f57600460008381526020019081526020016000206001015460018190555060046000838152602001908152602001600020600001546002819055505b600360003373ffffffffffffffffffffffffffffffffffffffff1673ffffffffffffffffffffffffffffffffffffffff16815260200190815260200160002060009054906101000a900460ff169050919050565b60008054906101000a900473ffffffffffffffffffffffffffffffffffffffff1681565b60008060009054906101000a900473ffffffffffffffffffffffffffffffffffffffff1673ffffffffffffffffffffffffffffffffffffffff163373ffffffffffffffffffffffffffffffffffffffff1614610348576040517f08c379a000000000000000000000000000000000000000000000000000000000815260040161033f906105d0565b60405180910390fd5b600254905090565b600080fd5b6000819050919050565b61036881610355565b811461037357600080fd5b50565b6000813590506103858161035f565b92915050565b6000602082840312156103a1576103a0610350565b5b60006103af84828501610376565b91505092915050565b60008115159050919050565b6103cd816103b8565b82525050565b60006020820190506103e860008301846103c4565b92915050565b600073ffffffffffffffffffffffffffffffffffffffff82169050919050565b6000610419826103ee565b9050919050565b6104298161040e565b82525050565b60006020820190506104446000830184610420565b92915050565b6000819050919050565b61045d8161044a565b82525050565b60006020820190506104786000830184610454565b92915050565b600082825260208201905092915050565b7f596f757220566f746520686173206265656e207265636f7264656420616c726560008201527f6164790000000000000000000000000000000000000000000000000000000000602082015250565b60006104eb60238361047e565b91506104f68261048f565b604082019050919050565b6000602082019050818103600083015261051a816104de565b9050919050565b7f4e487b7100000000000000000000000000000000000000000000000000000000600052601160045260246000fd5b600061055b82610355565b915061056683610355565b925082820190508082111561057e5761057d610521565b5b92915050565b7f4f776e6572207265717569726564000000000000000000000000000000000000600082015250565b60006105ba600e8361047e565b91506105c582610584565b602082019050919050565b600060208201905081810360008301526105e9816105ad565b905091905056fea26469706673582212204cd05e701593289ad4a9d27ddb930f7be45ea860cbb633d539ca90159dd1389564736f6c63430008150033",
  "immutableReferences": {},
  "source": "// SPDX-License-Identifier: GPL-3.0\r\npragma solidity ^0.8.21;\r\n\r\ncontract Voting{\r\n      address public owner;\r\n      uint maxVotes;\r\n      bytes32 winner;\r\n     struct candidateInfo{\r\n        bytes32 name;\r\n        uint voteCount;\r\n     }\r\n     mapping(address => bool) voted;\r\n     mapping (uint =>candidateInfo) candidates;\r\n     constructor(bytes32[] memory names){\r\n       owner = msg.sender;\r\n       maxVotes = 0;\r\n       winner = 0x4e6f2077696e6e65720000000000000000000000000000000000000000000000;\r\n       for(uint i = 0;i<names.length;i++){\r\n            candidates[i] = candidateInfo({\r\n               name : names[i],\r\n               voteCount : 0\r\n            });\r\n       }\r\n     }\r\n\r\n     function vote(uint cno) public returns (bool){\r\n        require(!voted[msg.sender],'Your Vote has been recorded already');\r\n         voted[msg.sender] = true;\r\n         candidates[cno].voteCount += 1;\r\n         if(maxVotes < candidates[cno].voteCount){\r\n            maxVotes = candidates[cno].voteCount;\r\n            winner = candidates[cno].name;\r\n         }\r\n         return voted[msg.sender];\r\n     }\r\n      \r\n     function getWinner() public view returns (bytes32){\r\n          require(msg.sender == owner,\"Owner required\");\r\n          return winner;\r\n     }\r\n    \r\n}",
  "sourcePath": "D:\\blockchain\\voting-dapp\\src\\contracts\\Voting.sol",
  "compiler": {
    "name": "solc",
    "version": "0.8.21+commit.d9974bed.Emscripten.clang"
  },
  "schemaVersion": "3.4.16",
  "updatedAt": "2025-03-01T04:42:12.282Z",
  "networkType": "ethereum",
  "devdoc": {
    "kind": "dev",
    "methods": {},
    "version": 1
  },
  "userdoc": {
    "kind": "user",
    "methods": {},
    "version": 1
  }
}